:100000000C9436000C9451000C9451000C94510047
:100010000C9451000C9451000C9451000C9451001C
:100020000C9451000C9451000C9451000C9451000C
:100030000C9451000C9451000C945F010C945100ED
:100040000C9451000C9451000C9451000C945100EC
:100050000C9451000C948F010C9451000C9451009D
:100060000C9487080C9451000C94360011241FBE88
:10007000CFEFD4E0DEBFCDBF11E0A0E0B1E0EEEC09
:10008000F7E202C005900D92A830B107D9F712E04F
:10009000A8E0B1E001C01D92AF34B107E1F70C94C4
:1000A00053000C940000CFEFD4E0DEBFCDBF16E0CC
:1000B00014B989EF85B917B88FE788B91AB88FEFE7
:1000C0008BB90E94EE020E94FD010E94C6090E94A7
:1000D00034010E941D060E94CC030E94DD0780911E
:1000E00007020E94580840E050E067E0812F0E941C
:1000F000350278948091DF018823E1F31092DF01CB
:100100008091E2019091E3010E9468031092DF0167
:100110008091E2019091E301AC0161E180E10E94F4
:10012000350240E050E063E182E10E9435028091B7
:10013000EC0183608093EC018091DF01882389F0DA
:100140008AE090E00E94D4041092DF010091E20165
:100150001091E301C8010E944C06BC01C8010E9435
:10016000040A8091E101882341F01092E10180911D
:10017000E4019091E5010E94EE070E947B0888232C
:10018000D9F20E94660899278738910509F44BC077
:1001900088389105A4F48338910591F1843891054C
:1001A0003CF48038910529F18238910529F1C4CFBA
:1001B0008538910589F18638910594F529C08139F2
:1001C0009105F1F18239910554F48938910589F14D
:1001D000893891055CF18039910571F1ADCF833992
:1001E0009105B1F1833991057CF184399105C9F10B
:1001F000A3CF0E94F902A0CF8091EC0181609ACF39
:100200008091EC018E7F8093EC010E948D0994CF48
:100210008091EC0182608ECF8091EC018D7F8ACF3E
:100220000E94B80289CF0E947D0286CF0E94F5010C
:1002300083CF0E94510280CF81E08093E6017CCF82
:100240008091EC01846076CF8091EC018B7F72CF3E
:100250001092DF018091E2019091E3010E94680316
:100260006BCF0E94280468CF81E08093E001109258
:10027000E1011092E5011092E4011092DF01109269
:10028000E3011092E2018093E60188B1887F88B98A
:1002900080917E00876080937E0082E480937C0062
:1002A00083E080937B008EEA80937A0092E094BD95
:1002B00085E085BD90936E008EE487BD08951F9202
:1002C0000F920FB60F9211242F933F934F935F938A
:1002D0006F937F938F939F93AF93BF93EF93FF930E
:1002E0008091E001813051F467E086E00E942102B4
:1002F0000196AC0167E086E00E943502FF91EF9124
:10030000BF91AF919F918F917F916F915F914F912D
:100310003F912F910F900FBE0F901F9018951F9235
:100320000F920FB60F9211242F933F934F935F9329
:100330006F937F938F939F93AF93BF93EF93FF93AD
:1003400040917800509179008091E00199278130A7
:10035000910549F0823091051CF4892B79F034C065
:10036000029731F131C05093E3014093E20181E003
:100370008093DF011092E00180E40FC05093E5010B
:100380004093E40191E09093E1018091E60188239C
:1003900061F082E08093E00181E480937C008091B1
:1003A0007A00806480937A000FC09093E00109C0C6
:1003B0001092E60165E184E10E94350281E08093BC
:1003C000E00182E480937C00FF91EF91BF91AF91B7
:1003D0009F918F917F916F915F914F913F912F915D
:1003E0000F900FBE0F901F90189580E18093070229
:1003F0000E94BF090E9426060895CF93DF93C7EE9F
:10040000D1E088E4FE0111928A95E9F781E08093BA
:10041000E7018093E8011092E90182E08093EA010C
:100420000E947D02882351F448E450E068E270E0C5
:10043000CE0180960E9447130E94F501DF91CF9173
:1004400008954FB7F894A7EEB1E0FD01E80FF11D54
:1004500080819927382F2227A60FB11D8C919927CB
:10046000282B392B4FBFC90108959A014FB7F89433
:10047000E7EEF1E0DF01A80FB11D832F99278C93E0
:10048000E60FF11D20834FBF0895FC016115710532
:1004900029F08191480F61507040F8CF842F99273F
:1004A0000895CF93DF93CDB7DEB760970FB6F8947A
:1004B000DEBF0FBECDBF40E150E06FEF70E0CE0178
:1004C00001960E94471380E090E020E130E0FE01B9
:1004D0003196DC01122E0E94CE13409641E08F3FF0
:1004E0009407A8F381E090E060960FB6F894DEBF21
:1004F0000FBECDBFDF91CF9108950F931F93CF9380
:10050000DF93CDB7DEB722970FB6F894DEBF0FBEEC
:10051000CDBF8E010F5F1F4FA0E0B0E022E030E0C2
:10052000F801122E0E94C9134981433089F4E7E093
:10053000F2E088E290E0D901182E0E94C913BC01B4
:1005400087E092E00E944502F8019181981719F026
:1005500080E090E002C081E090E022960FB6F8942F
:10056000DEBF0FBECDBFDF91CF911F910F910895D8
:100570000F931F93CF93DF93CDB7DEB722970FB6BC
:10058000F894DEBF0FBECDBF83E089838E010F5F7D
:100590001F4F482F68E270E087E092E00E9445021A
:1005A000F801818380E090E042E050E0DC01142E0D
:1005B0000E94CE13E7E0F2E088E2DA01182E0E94F2
:1005C000CE1381E090E022960FB6F894DEBF0FBE06
:1005D000CDBFDF91CF911F910F91089584B7877F91
:1005E00084BF8091600088618093600010926000F9
:1005F00008958091EC018E7F8093EC010E948D091B
:1006000088E880936000FFCFAA2797FDA095BA2FB6
:10061000BC01CD010E942F11DC01CB01BC01CD0139
:100620000895DC01CB0120E030E040E05FE3BC0155
:10063000CD010E94FE0EDC01CB01BC01CD010E9468
:100640009311DC01CB010895AA2797FDA095BA2F3D
:10065000BC01CD010E942F11DC01CB0120E030E074
:1006600040E85AE3BC01CD010E94640FDC01CB01DC
:10067000BC01CD0108959091380280912F02981706
:1006800018F4891B815003C0981B87E0891B9927A8
:10069000089540E050E06BE18AE10E94350240E0BD
:1006A00050E06DE18CE10E94350240E050E06FE1E6
:1006B0008EE10E94350240E050E069E188E10E944D
:1006C00035021092FD010E943B038093FE010895C4
:1006D000AF92BF92CF92DF92EF92FF920F931F9350
:1006E00010923002109231021092320210923302B4
:1006F0001092340210923502109236021092370294
:100700001092380210922F021092090110920801E3
:100710000E940403DC01CB0180930A0190930B013A
:10072000A0930C01B0930D0180E090E0A0E0B0E058
:1007300080930E0190930F01A0931001B0931101CB
:100740008093120190931301A0931401B0931501AB
:10075000BF93AF939F938F935C016D01E0900A016B
:10076000F0900B0100910C0110910D01A80197016F
:1007700060E070E0CB010E94590B0E9449030F908A
:100780000F900F900F901F910F91FF90EF90DF90BF
:10079000CF90BF90AF900895AF92BF92CF92DF926B
:1007A000EF92FF920F931F9310923002109231023A
:1007B00010923202109233021092340210923502DB
:1007C00010923602109237021092380210922F02C5
:1007D000109209011092080120E030E040E054E45A
:1007E00020930A0130930B0140930C0150930D01AB
:1007F00080E090E0A0E0B0E080930E0190930F01C4
:10080000A0931001B09311018093120190931301F2
:10081000A0931401B0931501BF93AF939F938F934F
:100820005C016D0179018A0160E070E0CB010E94FA
:10083000590B0E9449030F900F900F900F901F913A
:100840000F91FF90EF90DF90CF90BF90AF90089501
:100850007F928F929F92AF92BF92CF92DF92EF9250
:10086000FF920F931F93CF93DF937090380273948E
:1008700087E0782280912F02781619F460E070E00A
:1008800084C06BE18AE10E9421028C016DE18CE160
:100890000E9421027C016FE18EE10E9421026C0125
:1008A00069E188E10E9421024C01009711F4BC012A
:1008B0006CC0272D33278EE090E0289FE001299F10
:1008C000D00D389FD00D1124C85FDE4F99828882E9
:1008D000C8010E940403DC01CB018A839B83AC83A3
:1008E000BD83C7010E942403DC01CB018E839F835B
:1008F000A887B987C6010E942403DC01CB018A873F
:100900009B87AC87BD8790912F0280913802981702
:10091000F9F42091430230914402409145025091F4
:10092000460280E090E0A0E0B0E0BF93AF939F93D9
:100930008F935C016D01EA80FB800C811D81B40105
:1009400080E090E00E94590B0F900F900F900F9055
:100950009401442755278091340290913502A0914B
:100960003602B0913702820F931FA41FB51F8093E8
:10097000340290933502A0933602B09337027092FE
:1009800038020E94490361E070E0CB01DF91CF9112
:100990001F910F91FF90EF90DF90CF90BF90AF909D
:1009A0009F908F907F900895AF92BF92CF92DF92E9
:1009B000EF92FF920F931F93CF93DF93CDB7DEB7E4
:1009C00028970FB6F894DEBF0FBECDBF9C01809173
:1009D000EC0182FF21C190912F028091380298177B
:1009E00089F4109230021092310210923202109269
:1009F0003302109234021092350210923602109295
:100A00003702D6C044275527809130029091310299
:100A1000A0913202B0913302820F931FA41FB51F21
:100A20008093300290933102A0933202B09333024C
:100A300020914D0230914E0244275527281739073F
:100A40004A075B0708F0B4C08091300290913102F0
:100A5000A0913202B0913302821B930BA40BB50B11
:100A60008093300290933102A0933202B09333020C
:100A70008091340290913502A0913602B0913702F4
:100A8000821B930BA40BB50B809334029093350219
:100A9000A0933602B093370290912F029F5F977018
:100AA00090932F0280913802292F3327981789F5C8
:100AB0008EE090E0289FF001299FF00D389FF00D07
:100AC0001124E85FFE4F80E090E0A0E0B0E0BF932B
:100AD000AF939F938F935C016D01E280F38004815B
:100AE0001581A801970160E070E0CB010E94590BCD
:100AF00010923002109231021092320210923302A0
:100B0000109234021092350210923602109237027F
:100B100038C09F5F97704EE050E0249FB001259F42
:100B2000700D349F700D11249B01285F3E4F892F5B
:100B30009927849FB001859F700D949F700D11249B
:100B4000685F7E4FFB0186819781A085B185BF9349
:100B5000AF939F938F93F901A284B384C484D58407
:100B6000FB01E280F38004811581F9012281338148
:100B700044815581FB016081718180E090E00E9499
:100B8000590B0F900F900F900F900E943B03809392
:100B9000FE0120914D0230914E024427552780914D
:100BA000300290913102A0913202B091330246CFCF
:100BB000AE014F5F5F4FBE016B5F7F4F8091300290
:100BC000909131020E947B0C89819A81AB81BC811A
:100BD00020E030E040E251E4BC01CD010E94640F0E
:100BE000DC01CB0189839A83AB83BC836D817E81D9
:100BF0008F8198850E941103AC0161E180E10E9420
:100C0000350269817A818B819C810E941103AC013C
:100C100063E182E10E94350228960FB6F894DEBFA8
:100C20000FBECDBFDF91CF911F910F91FF90EF903D
:100C3000DF90CF90BF90AF900895109297011092DF
:100C40009601109299011092980108951F9310E057
:100C50001093080240E050E063E282E20E94350215
:100C600040E050E065E284E20E94350240E050E05E
:100C700067E286E20E94350240E650E06BE28AE2DB
:100C80000E94350240EA53E06DE28CE20E94350298
:100C9000109315021F910895EF92FF920F931F93E7
:100CA000CF93DF93EC01209178013091790140914D
:100CB0007A0150917B01DA01C901B595A795979505
:100CC0008795281B390B4A0B5B0BDA01C9019E0182
:100CD000442737FD4095542F820F931FA41FB51F43
:100CE0008093780190937901A0937A01B0937B016E
:100CF000B595A795979587959C0190938D018093C5
:100D00008C014091980150919901241B350B30932F
:100D10008B0120938A01909399018093980161E15E
:100D200080E10E942102909383018093820163E11C
:100D300082E10E94210290938501809384016BE2FD
:100D40008AE20E94210290938701809386016DE2DE
:100D50008CE20E9421029093890180938801809106
:100D600015028823B9F10FEF13E0C8018C1B9D0B0E
:100D7000AC0169E088E00E94350280918A0190917F
:100D80008B01909581959F4FAC016BE08AE00E94AA
:100D9000350280918201909183019801281B390BC3
:100DA0003093830120938201809186019091870185
:100DB0009801281B390B309387012093860180917D
:100DC000880190918901081B190B109389010093E8
:100DD00088010DC0AE0169E088E00E9435024091B3
:100DE0008A0150918B016BE08AE00E94350280916C
:100DF0000802992790937D0180937C0120918201C4
:100E000030918301809196019091970128173907BD
:100E100021F4C0918C01D0918D01309397012093E2
:100E2000960180918601909187012817390724F453
:100E3000909383018093820180918201909183013C
:100E400020918801309189012817390724F43093C3
:100E500083012093820180918201909183018C1BF8
:100E60009D0B90937F0180937E01809184019091EE
:100E7000850120918A0130918B01821B930B909305
:100E800081018093800163E282E20E9421029093BB
:100E900095018093940165E284E20E94210290937F
:100EA00093018093920110928E0110928F01109203
:100EB00090011092910120917E0130917F018091EB
:100EC0007C0190917D018217930734F09095819574
:100ED0009F4F28173907D4F479010027F7FC0095B4
:100EE000102F80919401909195019C0144275527E2
:100EF000C801B7010E945113DC01CB0180938E0120
:100F000090938F01A0939001B09391018091800103
:100F1000909181017C010027F7FC0095102F8091B2
:100F20009201909193019C0144275527C801B70174
:100F30000E9451139B01AC0180918E0190918F0111
:100F4000A0919001B0919101820F931FA41FB51F32
:100F5000892F9A2FAB2FBB27A7FDBA9580938E01BF
:100F600090938F01A0939001B09391018F3F9105D1
:100F7000A105B10531F02CF08FEF90E0A0E0B0E0DA
:100F800009C081509F4FAF4FBF4F64F481E09FEF86
:100F9000AFEFBFEF80938E0190938F01A0939001EC
:100FA000B093910180918E0190918F01DF91CF914B
:100FB0001F910F91FF90EF90089510929A0187E092
:100FC000EBE9F1E011921192815087FFFBCF40E0F5
:100FD00050E06DE08CE00E943502089520919A0166
:100FE000E22FFF27EE0FFF1FE556FE4F9183808310
:100FF0002F5F277020939A0140E050E027E0EBE953
:10100000F1E081919191480F591F215027FFF9CFAD
:1010100083E0569547958A95E1F76DE08CE00E9454
:1010200035020895982F9F77983340F0903618F442
:1010300080E090E00895903740F49852E92FFF2720
:10104000E951FE4F80819927089597FD0EC098536E
:10105000E92FFF27E951FE4F8081E82FFF27E03776
:1010600020F48E2F0E941208EECF80E090E00895C9
:10107000E82FEF77E031D8F0E03258F08091EC01C2
:1010800081FF15C0E83328F0E03688F0E03730F40F
:10109000E852FF27E951FE4F60830895E7FD07C03E
:1010A000E854FF27E951FE4FE081E03710F308953F
:1010B0001092AF011092AE01880F8093BA008FEFAB
:1010C0008093BB0085EC8093BC0008959091AE01A5
:1010D0008091AF019817D1F38091AF018F5F83703A
:1010E0008093AF018091AF01E82FFF27E055FE4FBD
:1010F00080819927089520E030E09091AE018091A1
:10110000AF01981711F021E030E0C90108951F9256
:101110000F920FB60F9211242F933F934F935F932B
:101120006F937F938F939F93AF93BF93EF93FF93AF
:101130008091B9009927803A910509F4DAC0813A83
:10114000910584F48036910509F447C081369105F4
:1011500024F4892B09F4CBC0CCC08038910509F464
:101160003FC0C7C0803C910509F4C3C0813C9105D4
:101170003CF4883A910569F0883B910551F0B9C07B
:10118000883C910509F4B5C0883F910509F4B4C0C5
:10119000B0C08091AB010E941208982F8091AC01E1
:1011A000843089F43091B4018091B5012091B60169
:1011B000381738F4290F2093B6013F5F3093B401FC
:1011C00002C0922F05C08091AB018F5F8093AB016D
:1011D000892F99278093BB008CC01092AC0189C0E5
:1011E0006091BB008091AC0199278230910581F11B
:1011F000833091052CF4009749F00197F9F079C0FC
:101200008330910579F10497D1F173C067FD04C073
:101210006093AB0181E030C0613811F482E02CC0F2
:101220008091AE018F5F83708093AE018091AE019B
:10123000E82FFF27E055FE4F60835BC08091AB0134
:101240000E9438088091AB018F5F8093AB0151C041
:10125000862F8F708093B5018093B6011092B401F0
:1012600083E00AC06093AB018091AB019091B6011D
:10127000980F9093B60184E08093AC013AC08091BE
:10128000B4019091B5012091B601891770F4E82F4F
:10129000FF27EF70F070E954FE4F6083260F209314
:1012A000B6018F5F8093B40124C0621711F51092CC
:1012B000B4019923F1F08091B401E82FFF27EF707A
:1012C000F070E954FE4F60818091AB010E943808B4
:1012D0008091AB018F5F8093AB018091B4018F5FF0
:1012E0008093B4019091B501891728F302C085ED70
:1012F00001C085EC8093BC00FF91EF91BF91AF914D
:101300009F918F917F916F915F914F913F912F911D
:101310000F900FBE0F901F901895F8948091C70101
:10132000882321F48091C8018823B9F0809180003E
:101330008F7380938000809180008F7C80938000E9
:1013400085B1897F85B987E090E00000019797FF1C
:10135000FCCF1092C7011092C80110928900109220
:10136000880010928B0010928A0078948091C701B7
:101370008093F5018091C8018093F601089540E1C2
:1013800050E069E288E20E943502089569E288E24D
:101390000E9421029C019093CA018093C90110927E
:1013A000800000000000000085B1897F85B984B10C
:1013B000866084B91092850010928400109280009B
:1013C000109281001092820010926F0084E0220F30
:1013D000331F8A95E1F721503040309387002093E6
:1013E0008600109289001092880010928B00109253
:1013F0008A001092800081E18093810080E08093D8
:10140000F5018093F6010895EF92FF920F931F93D9
:10141000CF93DF937C018B0169E288E20E94210275
:101420002091C9013091CA0182179307A9F18091D7
:1014300080008F7380938000809180008F7C8093E8
:10144000800085B1897F85B987E090E00000019731
:1014500097FFFCCF1092C7011092C80169E288E2A1
:101460000E9421029093CA018093C90174E0880F01
:10147000991F7A95E1F701979093870080938600F2
:1014800010928500109284001092890010928800BA
:1014900010928B0010928A0080911502882301F12E
:1014A0006DE28CE20E942102EC016BE28AE20E9472
:1014B00021029C0144E0C030D40710F0CFEFD3E00C
:1014C00054E02030350710F02FEF33E08FEF93E03A
:1014D000AC014C1B5D0BEA01821B930B9C0116C0F7
:1014E0006BE28AE20E942102EC016DE28CE20E9432
:1014F00021029C0154E0C030D50710F0CFEFD3E0BB
:1015000084E02030380710F02FEF33E0EC16FD06B2
:1015100020F417FF02C000E010E02E153F0528F46C
:101520001016110614F400E010E08091EC0180FF29
:10153000B7C017FF54C0C02FC195EC2EFF24002761
:1015400011278091C9019091CA019C014427552718
:1015500064E0220F331F441F551F6A95D1F72150B5
:10156000304040405040C801B7010E945113DC0197
:10157000CB01BC01CD012FEF30E040E050E00E94F4
:101580007013A901F8948091C801882321F08091FB
:10159000C7018823C1F0809180008F7580938000FF
:1015A00050938B0040938A0085B1897F85B927E0ED
:1015B00030E000002150304037FFFBCF80E28093C5
:1015C00080001092C701C093C80110928900109248
:1015D000880050938B0040938A00789458C010166E
:1015E00011060CF05DC0C02FE02EFF24002711274C
:1015F0008091C9019091CA019C014427552794E02C
:10160000220F331F441F551F9A95D1F721503040A8
:1016100040405040C801B7010E945113DC01CB018A
:10162000BC01CD012FEF30E040E050E00E9470138C
:10163000A901F8948091C701882321F08091C80105
:101640008823D1F0809180008F7580938000509323
:1016500089004093880085B1897F85B927E030E013
:1016600000002150304037FFFBCF80918000806820
:10167000809380001092C801C093C70150938900E5
:101680004093880010928B0010928A007894809189
:10169000C7018093F5018091C8018093F60102C0D3
:1016A0000E948D09DF91CF911F910F91FF90EF90D4
:1016B00008954F925F926F927F928F929F92AF9216
:1016C000BF92CF92DF92EF92FF920F931F93CF932F
:1016D000DF93CDB7DEB724970FB6F894DEBF0FBE09
:1016E000CDBFFC0129833A834B835C8327013801FA
:1016F00045015601F0934C02E0934B0270933E0279
:1017000060933D028B010E1B1F0B10934E02009342
:101710004D02C801AA2797FDA095BA2FBC01CD01A3
:101720000E942F116B017C0117FF08C020E030E000
:1017300040E857E40E94FE0E6B017C01C092CB0191
:10174000D092CC01E092CD01F092CE01A70196019A
:10175000C501B4010E94640F4B015C01A701960111
:101760006F89788D898D9A8D0E94640F6F8B788F29
:10177000898F9A8F29813A814B815C81209339022C
:1017800030933A0240933B0250933C024092430212
:101790005092440260924502709246028092470243
:1017A00090924802A0924902B0924A02DC01CB0119
:1017B00080933F0290934002A0934102B093420273
:1017C000CA01B9010E94FE0E7B018C01A3019201A6
:1017D000C301B2010E94FE0EDC01CB019C01AD01F0
:1017E000C801B7010E942F0FDC01CB01A5019401B4
:1017F000BC01CD010E94FE0EDC01CB012F89388D8A
:10180000498D5A8DBC01CD010E94FE0EDC01CB0139
:101810008093CF019093D001A093D101B093D201D6
:1018200020E030E040E450EC69817A818B819C813A
:101830000E94640F7B018C0120E030E040E450E422
:10184000C301B2010E94640FDC01CB019C01AD0118
:10185000C801B7010E94FE0E7B018C01A501940115
:10186000C501B4010E94FE0EDC01CB019C01AD015B
:10187000C801B7010E942F0FDC01CB012F89388DE1
:10188000498D5A8DBC01CD010E942F0FDC01CB0187
:101890008093D3019093D401A093D501B093D60146
:1018A0008092D7019092D801A092D901B092DA012A
:1018B00029813A814B815C812093DB013093DC01EB
:1018C0004093DD015093DE0124960FB6F894DEBFFD
:1018D0000FBECDBFDF91CF911F910F91FF90EF9081
:1018E000DF90CF90BF90AF909F908F907F906F9040
:1018F0005F904F9008952F923F924F925F926F9218
:101900007F928F929F92AF92BF92CF92DF92EF928F
:10191000FF920F931F93CF93DF93FC012B011A01CA
:1019200020914B0230914C0228173907C8F0809162
:10193000390290913A02A0913B02B0913C02EB0136
:1019400088839983AA83BB83E217F30748F18091C8
:10195000470290914802A0914902B0914A0224C0E6
:1019600040913D0250913E028417950718F18091F5
:10197000430290914402A0914502B0914602EB01CE
:1019800088839983AA83BB834E175F0748F08091B1
:101990003F0290914002A0914102B091420204C0E6
:1019A00080E090E0A0E0B0E0F10180839183A28329
:1019B000B383EDC08C01021B130BC801AA2797FD4E
:1019C000A095BA2FBC01CD010E942F11FC01EB01A3
:1019D00017FF08C020E030E040E857E40E94FE0E08
:1019E000FC01EB018091CB019091CC01A091CD0144
:1019F000B091CE019C01AD01BE01CF010E947F10CC
:101A00005B016C019B01AC010E94640F3B014C0126
:101A1000A60195010E94640FDC01CB01E090CF018B
:101A2000F090D0010091D1011091D2019C01AD0143
:101A3000C801B7010E94640F7B018C018091D30122
:101A40009091D401A091D501B091D601A401930148
:101A5000BC01CD010E94640FDC01CB019C01AD01F2
:101A6000C801B7010E94FE0E7B018C018091D70155
:101A70009091D801A091D901B091DA01A601950108
:101A8000BC01CD010E94640FDC01CB019C01AD01C2
:101A9000C801B7010E94FE0E7B018C018091DB0121
:101AA0009091DC01A091DD01B091DE019C01AD01BE
:101AB000C801B7010E94FE0EDC01CB01E201888360
:101AC0009983AA83BB838091CF019091D001A0918B
:101AD000D101B091D20120E030E040E450E4BC01FB
:101AE000CD010E94640FDC01CB01A4019301BC0174
:101AF000CD010E94640F7B018C018091D3019091F4
:101B0000D401A091D501B091D6019C01AD01BC01D9
:101B1000CD010E94FE0EDC01CB01A6019501BC01A6
:101B2000CD010E94640FDC01CB019C01AD01C80115
:101B3000B7010E94FE0E7B018C018091D70190912C
:101B4000D801A091D901B091DA019C01AD01C80181
:101B5000B7010E94FE0E7B018C01F101608371834D
:101B6000828393838091CB019091CC01A091CD0190
:101B7000B091CE019C01AD01C801B7010E947F1058
:101B8000DC01CB01E10188839983AA83BB83DF91C8
:101B9000CF911F910F91FF90EF90DF90CF90BF906A
:101BA000AF909F908F907F906F905F904F903F90FD
:101BB0002F900895A0E0B0E0E0EEFDE00C949213C9
:101BC0008C017B015A01DC018C91823058F0FB01C1
:101BD0009081923010F4A7010BC1843029F4943025
:101BE00009F4A6C0A80104C19430A9F3923009F405
:101BF000A9C0823081F3F801C280D380FB016281E9
:101C00007381F8012481358146815781F701648011
:101C1000758086809780C601861B970B97FDD8C07C
:101C200080970CF46CC06C157D050CF0ADC066247B
:101C300077244301F8016181F7018181681709F474
:101C400099C0662309F491C0621A730A840A950A3E
:101C5000A401930157FDC0C0F5011182B60119011D
:101C60002A0179018A0139014A0108946108710841
:101C700081089108FFEF6F16FFEF7F06FFEF8F06D9
:101C8000FFE39F06F0F4A8019701220F331F441FC2
:101C9000551F19012A01B601615070406B0179018D
:101CA0008A0139014A010894610871088108910884
:101CB0008FEF68168FEF78068FEF88068FE3980610
:101CC00010F383E0D5018C9357FC64C0F5012483A5
:101CD00035834683578373836283A50189C06F5F11
:101CE0007F4FD401C30181709070A070B070969442
:101CF000879477946794682A792A8A2A9B2A6C1594
:101D00007D056CF311C00894C11CD11CDA01C90116
:101D100081709070A070B070569547953795279553
:101D2000282B392B4A2B5B2BC616D70664F382CFA0
:101D3000F8019181FB018181981709F453CF40E0AC
:101D400051E056C0823009F04DCF88E0DA01F80149
:101D500001900D928A95E1F7F8018181FB01918153
:101D60008923FA018183A50143C02619370948094F
:101D7000590970CFF5016183B601260D371D481D45
:101D8000591D19012A019DCF6B0120E030E040E090
:101D900050E050CFD201C101B695A7959795879590
:101DA00021E030E040E050E022223322442255225C
:101DB000282A392A4A2A5B2AF5012482358246825A
:101DC00057820894C11CD11CD382C282A50110C0C5
:101DD000909581959F4F24CF81E0F5018183B601D5
:101DE00050954095309521953F4F4F4F5F4F37CFDE
:101DF000CA01E2E1CDB7DEB70C94AE13A0E2B0E0C9
:101E0000E4E0FFE00C94A013DC01CB01898F9A8FF2
:101E1000AB8FBC8F2D8F3E8F4F8F58A3BE016F5F4E
:101E20007F4FCE0149960E94CD128E01075F1F4F52
:101E3000B801CE014D960E94CD12AE014F5E5F4FAC
:101E4000B801CE0101960E94DA0D0E94E511DC0175
:101E5000CB01BC01CD01E4E0A0960C94BC13A0E240
:101E6000B0E0E5E3FFE00C94A013DC01CB01898F27
:101E70009A8FAB8FBC8F2D8F3E8F4F8F58A3BE0193
:101E80006F5F7F4FCE0149960E94CD128E01075F92
:101E90001F4FB801CE014D960E94CD128A8591E068
:101EA00089278A87AE014F5E5F4FB801CE01019648
:101EB0000E94DA0D0E94E511DC01CB01BC01CD01CD
:101EC000E4E0A0960C94BC13A0E2B0E0EAE6FFE0E8
:101ED0000C949213DC01CB01898F9A8FAB8FBC8F4E
:101EE0002D8F3E8F4F8F58A3BE016F5F7F4FCE0166
:101EF00049960E94CD1269E070E06C0F7D1FCE0103
:101F00004D960E94CD12FE0131966624772443013E
:101F1000130124018981823098F09985923058F418
:101F200020E091818A85981321E02A8769E070E09A
:101F30006C0F7D1FD9C0843059F4923009F45BC016
:101F400020E091818A85981321E02183BF01CCC0D4
:101F5000943009F44DC0823099F3923009F3ED804A
:101F6000FE800F8118852D853E854F855889640137
:101F700053016FE170E00CC0220F331F441F551F47
:101F800016950795F794E7946150704077FD36C039
:101F9000D801C70181709070A070B070892BC9F012
:101FA00080E090E0220E331E441E551E221633069A
:101FB0004406550610F481E090E0AA2797FDA0950D
:101FC000BA2F8A0D9B1DAC1DBD1D680E791E8A1E81
:101FD0009B1EAA0CBB1CCC1CDD1C57FFCDCF81E087
:101FE00090E0A0E0B0E0A82AB92ACA2ADB2AC4CF30
:101FF000823009F095CF60E071E076C022813381B4
:102000008B859C85280F391F2E5F3F4FA90160E00B
:1020100091818A85981361E06A8B97FE0FC02FC06B
:10202000CA010197AC019C01660C771C881C991CA5
:1020300057FC41C0220C331C441C551C90E069160F
:1020400090E0790690E0890690E4990648F33C8B8D
:102050002B8BD401C3018F779070A070B070803447
:102060009105A105B10581F16D8A7E8A8F8A988ECE
:1020700083E0898B61E170E06C0F7D1F35C02F5FBD
:102080003F4FA901D401C30181709070A070B0705E
:10209000892B61F0569447943794279480E090E020
:1020A000A0E0B0E8282A392A4A2A5B2A9694879425
:1020B00077946794C3CF81E090E0A0E0B0E0682A15
:1020C000792A8A2A9B2AB6CF67FC05C021143104DD
:1020D0004104510449F280E490E0A0E0B0E0680ED1
:1020E000791E8A1E9B1EC0CFCB010E94E511DC0128
:1020F000CB01BC01CD01E2E1A0960C94AE13A8E1A6
:10210000B0E0E5E8F0E10C949A13DC01CB01898B97
:102110009A8BAB8BBC8B2D8B3E8B4F8B588FBE011C
:102120006F5F7F4FCE0141960E94CD128E01075FF7
:102130001F4FB801CE0145960E94CD12FE01319687
:102140002981223008F45FC03985323010F4B8019B
:102150007BC081819A8589278183243009F455C009
:10216000223009F452C0343009F454C0323009F43A
:1021700058C06B817C818B859C85681B790B2D8178
:102180003E814F815885ED84FE840F8518892E1578
:102190003F054007510730F4220F331F441F551FDE
:1021A000615070407C836B8380E090E0A0E0B0E4FD
:1021B000AA24BB2465012E153F054007510740F0B6
:1021C000A82AB92ACA2ADB2A2E193F09400B510B2B
:1021D000B695A79597958795220F331F441F551FD6
:1021E0000097A105B10539F7D601C5018F77907029
:1021F000A070B07080349105A105B105A9F0A4824A
:10220000B582C682D782BF011FC02317E1F760E005
:1022100071E01AC01D821E821F8218861C821B82DA
:10222000F2CF84E08983EFCFA7FC05C021153105EB
:102230004105510521F380E490E0A0E0B0E0A80E54
:10224000B91ECA1EDB1EDBCFCB010E94E511DC01EB
:10225000CB01BC01CD01EAE068960C94B613A8E06E
:10226000B0E0E5E3F1E10C949E139B01AC017B012E
:102270008C01EE2417FDE394FF2400271127EA8246
:10228000211531054105510539F482E08983CE01DC
:1022900001960E94E51143C083E089836EE170E0FE
:1022A000CB01EE2031F579018A01A8019701203098
:1022B000E0E03E07E0E04E07E0E45E0798F47901D5
:1022C0008A01EE0CFF1C001F111F0197BC01A80121
:1022D0009701E0E0EE16E0E0FE06E0E00E07E0E445
:1022E0001E0768F3ED82FE820F8318877C836B8361
:1022F000CECF2030E0E03E07E0E04E07E0E85E07AA
:1023000041F0EE24FF248701E21AF30A040B150BB7
:10231000CCCF7C836B8360E070E080E09FECE6E0F4
:1023200028960C94BA13ACE0B0E0E9E9F1E10C9422
:10233000A213DC01CB0189879A87AB87BC87BE01DA
:102340006F5F7F4FCE0109960E94CD128981823046
:1023500011F0823028F460E070E080E090E031C05D
:10236000843039F02B813C8137FDF5CF2F31310599
:102370006CF08A81882329F060E070E080E090E8CA
:1023800020C06FEF7FEF8FEF9FE71BC08EE190E0E3
:10239000821B930B2D813E814F81588504C0569539
:1023A0004795379527958A95D2F78A81882339F002
:1023B00050954095309521953F4F4F4F5F4FCA0143
:1023C000B901E2E02C960C94BE13A0E0B0E0EBEE75
:1023D000F1E10C949813882499245401DC01FC0148
:1023E00024813581468157818181082F112760E042
:1023F00070E08C91823020F46FEF70E04061A4C0F7
:10240000843009F464C0823009F463C021153105B9
:102410004105510509F498C0FD0182819381FFEFC8
:1024200082389F070CF050C0A2E8EA2EAFEFFA2ED8
:10243000E81AF90A8AE1E816F1040CF06BC06B01A6
:1024400081E090E0A0E0B0E00E2C04C0880F991F5E
:10245000AA1FBB1F0A94D2F70197A109B1098223D1
:102460009323A423B5230097A105B10519F0F1E04A
:10247000CF2ED12C04C05695479537952795EA94D1
:10248000D2F7C601AA2797FDA095BA2F282B392B82
:102490004A2B5B2BDA01C9018F779070A070B07066
:1024A00080349105A105B105D1F1215C3F4F4F4F1B
:1024B0005F4F2030E0E03E07E0E04E07E0E45E07DB
:1024C00008F161E070E01EC0803891053CF06FEFCC
:1024D00070E020E030E040E050E036C0BC016158E0
:1024E0007F4FDA01C9018F779070A070B07080348F
:1024F0009105A105B105D1F0215C3F4F4F4F5F4FD2
:1025000057FD1BC097E056954795379527959A95A7
:10251000D1F71AC020E030E040E050E0BBCF27FF09
:10252000C8CF205C3F4F4F4F5F4FC3CF27FFE8CF4F
:10253000205C3F4F4F4F5F4FE3CF56954795379500
:1025400027956F5F7F4FDECF822E932E942F9F773C
:102550008A2D8078A82EA92A962F97959927979546
:102560008A2D8F77A82EA92A76956795962F9F7723
:102570008B2D8078B82EB92A902F9795992797950B
:102580008B2D8F77B82EB92AD501C401BC01CD019E
:10259000ECE0CDB7DEB70C94B413CF93DF93FC011E
:1025A000DB01408151812281622F6F7770E0221F11
:1025B0002227221F9381892F880F822B282F3327D0
:1025C000991F9927991FED0199832115310541F430
:1025D0004115510561057105E1F482E08C9354C009
:1025E0002F3F310509F441C02F573040FD0133839F
:1025F000228383E08C9387E0440F551F661F771F6B
:102600008A95D1F77064ED014C835D836E837F837F
:102610003BC022E83FEFF901C7E0440F551F661F9A
:10262000771FCA95D1F783E08C93403080E058073C
:1026300080E0680780E4780778F4440F551F661F30
:10264000771F21503040F9014030C0E05C07C0E006
:102650006C07C0E47C0788F3ED01FB83EA83FD018E
:1026600044835583668377830FC041155105610507
:10267000710519F484E08C9307C064FF03C081E006
:102680008C93C1CF1C92BFCFDF91CF910895DC0115
:1026900040FF03C001C06D936D9342505040D8F786
:1026A0000895629FD001739FF001829FE00DF11D9C
:1026B000649FE00DF11D929FF00D839FF00D749FBC
:1026C000F00D659FF00D9927729FB00DE11DF91F68
:1026D000639FB00DE11DF91FBD01CF0111240895C5
:1026E000A1E21A2EAA1BBB1BFD010DC0AA1FBB1F16
:1026F000EE1FFF1FA217B307E407F50720F0A21B88
:10270000B30BE40BF50B661F771F881F991F1A94F4
:1027100069F760957095809590959B01AC01BD011E
:10272000CF0108952F923F924F925F926F927F92C6
:102730008F929F92AF92BF92CF92DF92EF92FF92D1
:102740000F931F93CF93DF93CDB7DEB7CA1BDB0B7D
:102750000FB6F894DEBF0FBECDBF09942A88398822
:1027600048885F846E847D848C849B84AA84B98429
:10277000C884DF80EE80FD800C811B81AA81B98135
:10278000CE0FD11D0FB6F894DEBF0FBECDBFED0149
:10279000089509D001921A94E1F7089501900BD0A1
:1027A0001A94E1F70895F999FECFB2BDA1BDF89A48
:1027B000119600B40895F999FECFB2BDA1BD00BC39
:0E27C00011960FB6F894FA9AF99A0FBE089582
:0827CE00000000000000000003
:00000001FF
