:1000000029C038C037C052C38AC223C3C8C2F4C291
:1000100059C205C22FC02EC02DC02CC02BC02AC073
:1000200029C028C027C000000100080040000001CE
:1000300000040000010008002000400080000001D2
:100040000004303132333435363738394142434495
:100050004546000011241FBECFE5D4E0DEBFCDBF72
:1000600010E0A0E6B0E001C01D92AC37B107E1F7A7
:1000700007D091C5C5CF8FEF87B9089586B1089590
:100080008FEF87B978940E949B0085E00E94BB00A7
:1000900005C0019684309105E4F386B180E090E0DC
:1000A000F9CF089580E090E0FC01EE0FFF1FE05AC9
:1000B000FF4F11821082019687309105A9F783B70F
:1000C000887F826083BF12BE89B7816089BF10922A
:1000D00070001092710010927200109273008EB531
:1000E000887F83608EBD1DBC1CBC89B7846089BFBE
:1000F00085B5887F846085BD14BC89B7806489BF5D
:10010000109278001092790010927A0010927B0081
:100110007894089583B7887F826083BF12BE89B7C1
:10012000816089BF1092700010927100109272006D
:100130001092730008958EB5887F83608EBD1DBCBC
:100140001CBC89B7846089BF089585B5887F8460A9
:1001500085BD14BC89B7806489BF10927800109265
:10016000790010927A0010927B00089593B7987FDF
:10017000982B93BF08959EB5987F982B9EBD0895A8
:1001800095B5987F982B95BD089583B7E82FF0E03B
:10019000E770F070EE0FFF1FEA5DFF4F259134917D
:1001A000C90108958EB5E82FF0E0E770F070EE0F0A
:1001B000FF1FEA5DFF4F25913491C901089585B570
:1001C000E82FF0E0E770F070EE0FFF1FEE5CFF4FDE
:1001D00025913491C9010895873040F4E82FF0E06B
:1001E000EE0FFF1FE05AFF4F718360830895873041
:1001F00040F4E82FF0E0EE0FFF1FE05AFF4F1182AE
:1002000010820895EF92FF920F931F93CF93DF9385
:10021000EC0112B7109274001092750010927600E3
:100220001092770083B7E82FF0E0E770F070EE0FE0
:10023000FF1FEA5DFF4F2591349140E050E060E000
:1002400070E880E790E08CD4B901CA01693B2DE8E1
:10025000720726E0820720E0920790F437E2C1316E
:10026000D30770F49E0140E050E025D428EE33E03F
:1002700040E050E053D4C901DA01BC01CD011FC0F8
:1002800028EE33E040E050E049D4CA01B9019E01B4
:1002900040E050E010D413C080917400909175003C
:1002A000A0917600B091770085B78F7885BF85B72C
:1002B000806885BF889585B78F7785BF08C09B010B
:1002C000AC01210F311D411D511D79018A01209181
:1002D000740030917500409176005091770082B79C
:1002E00090E0A0E0B0E0542F432F322F2227822B42
:1002F000932BA42BB52B8E159F05A007B10760F299
:10030000DF91CF911F910F91FF90EF900895109280
:100310007000109271001092720010927300089594
:1003200020917000309171004091720050917300E3
:10033000B901CA01089510927800109279001092C4
:100340007A0010927B000895209178003091790016
:1003500040917A0050917B00B901CA01089589301B
:1003600031F48FB582608FBD8FB58E7F0AC08A3021
:1003700019F48FB5826002C08FB58D7F8FBD8FB5A8
:1003800081608FBD1BBC1ABC19BC18BC08952FB569
:100390002E7F2FBD2FB522602FBD2EB528602EBD1C
:1003A0002EB520612EBD97BD86BD1BBC1ABC19BCE5
:1003B00018BC08958FB58D7F8FBD8FB58E7F8FBD93
:1003C0008FB58F778FBD8FB58F7B8FBD8FB58F7DAD
:1003D0008FBD8FB58F7E8FBD08958FB580688FBD1F
:1003E0008FB58F7B8FBD08958FB580628FBD8FB520
:1003F0008F7E8FBD08958FB58F778FBD8FB58F7B23
:100400008FBD08958FB58F7D8FBD8FB58F7E8FBDCA
:1004100008959BBD8ABD089599BD88BD08951F921A
:100420000F920FB60F9211242F933F934F935F9328
:100430006F937F938F939F93AF93BF93EF93FF93AC
:100440008091700090917100A0917200B091730042
:100450000196A11DB11D8093700090937100A0932F
:100460007200B09373008091740090917500A09118
:100470007600B09177000196A11DB11D80937400A4
:1004800090937500A0937600B09377008091600000
:1004900090916100892B29F0E0916000F09161005A
:1004A0000995FF91EF91BF91AF919F918F917F91AE
:1004B0006F915F914F913F912F910F900FBE0F90D1
:1004C0001F9018951F920F920FB60F9211242F9321
:1004D0003F934F935F936F937F938F939F93AF93CC
:1004E000BF93EF93FF938091620090916300892BFB
:1004F00029F0E0916200F09163000995FF91EF917E
:10050000BF91AF919F918F917F916F915F914F912B
:100510003F912F910F900FBE0F901F9018951F9233
:100520000F920FB60F9211242F933F934F935F9327
:100530006F937F938F939F93AF93BF93EF93FF93AB
:100540008091780090917900A0917A00B0917B0021
:100550000196A11DB11D8093780090937900A0931E
:100560007A00B0937B0080916A0090916B00892B98
:1005700029F0E0916A00F0916B000995FF91EF91ED
:10058000BF91AF919F918F917F916F915F914F91AB
:100590003F912F910F900FBE0F901F9018951F92B3
:1005A0000F920FB60F9211242F933F934F935F93A7
:1005B0006F937F938F939F93AF93BF93EF93FF932B
:1005C0008091640090916500892B29F0E09164008E
:1005D000F09165000995FF91EF91BF91AF919F91C7
:1005E0008F917F916F915F914F913F912F910F90DC
:1005F0000FBE0F901F9018951F920F920FB60F927B
:1006000011242F933F934F935F936F937F938F9317
:100610009F93AF93BF93EF93FF9380916600909168
:100620006700892B29F0E0916600F0916700099539
:10063000FF91EF91BF91AF919F918F917F916F91BA
:100640005F914F913F912F910F900FBE0F901F9090
:1006500018951F920F920FB60F9211242F933F936C
:100660004F935F936F937F938F939F93AF93BF93BA
:10067000EF93FF938091680090916900892B29F096
:10068000E0916800F09169000995FF91EF91BF91A9
:10069000AF919F918F917F916F915F914F913F911A
:1006A0002F910F900FBE0F901F9018951F920F92D1
:1006B0000FB60F9211242F933F934F935F936F9335
:1006C0007F938F939F93AF93BF93EF93FF9380910B
:1006D0006C0090916D00892B29F0E0916C00F091F5
:1006E0006D000995FF91EF91BF91AF919F918F910F
:1006F0007F916F915F914F913F912F910F900FBE1E
:100700000F901F90189590936F0080936E0008953E
:100710001F93182F8A3031F4E0916E00F0916F0032
:100720008DE00995E0916E00F0916F00812F0995A1
:100730001F910895CF93DF93EC01009719F405C042
:100740002196E6DF88818823D9F7DF91CF9108953C
:10075000EF92FF920F931F93CF93DF938C017A0157
:100760000097E1F020E030E02617370738F4F80171
:1007700081918F012F5F3F4F8823B1F7C0E0D0E018
:100780000AC0F8018081882319F00F5F1F4F01C054
:1007900080E2BEDF2196CE15DF0598F3DF91CF9181
:1007A0001F910F91FF90EF900895CF93DF93EC018D
:1007B000009711F406C0ACDFFE01219684918823D6
:1007C000D1F7DF91CF9108958AE0A2DF0895E82F55
:1007D000F0E0EF70F070EE5BFF4FE4918E2F98DF4A
:1007E00008951F93182F82958F70F1DF812FEFDF0F
:1007F0001F9108951F93182F892FF3DF812FF1DFA9
:100800001F910895EF92FF920F931F937B018C012C
:10081000C801AA27BB27EEDFC701ECDF1F910F91AC
:10082000FF90EF9008952F923F924F925F926F92B8
:100830007F928F929F92AF92BF92CF92DF92EF9270
:10084000FF920F931F93DF93CF93CDB7DEB7A3979C
:100850000FB6F894DEBF0FBECDBF6AA3242E2BA324
:1008600037014801442351F017FF08C0EE24FF244C
:100870008701E618F7080809190902C08401730105
:100880002AA1215090E0211091E0291B29A318A250
:10089000A82EBB24CC24DD24C801B701A6019501F4
:1008A0003DD1FB01EF70F070EE5BFF4F64916F8FF5
:1008B000C801B701A601950131D1C901DA017C0156
:1008C0008D019EE1492E512C4C0E5D1E39A023C096
:1008D000E114F10401051105B9F0C801B701A60141
:1008E00095011CD1FB01EF70F070EE5BFF4F64913E
:1008F000F2016083C801B701A60195010FD1C901BA
:10090000DA017C018D0103C02BA1F20120833A940E
:100910000894410851083320D9F6CE014F968C0136
:10092000E9A10E1B11092220E9F097FE05C08DE216
:10093000F80182938F0116C0C801019761147104F8
:100940008104910419F08C018BE202C08C0180E2D9
:10095000F801808307C0F80181918F01D9DEFAA1E7
:10096000F150FAA32AA12223B1F7A3960FB6F89467
:10097000DEBF0FBECDBFCF91DF911F910F91FF90D2
:10098000EF90DF90CF90BF90AF909F908F907F902F
:100990006F905F904F903F902F9008957F928F922D
:1009A0009F92AF92BF92CF92DF92EF92FF920F93FE
:1009B0001F93DF93CF93CDB7DEB77888C988DA88E5
:1009C00053E1E52EF12CEC0EFD1E13C0882381F4BB
:1009D00080E090E0CF91DF911F910F91FF90EF9019
:1009E000DF90CF90BF90AF909F908F907F900895B1
:1009F0008FDE96012F5F3F4F772021F0F6016901CE
:100A0000849103C0F601808169018532F9F62F5F78
:100A10003F4F772021F0F6016901849103C0F60170
:100A200080816901843629F0883781F0833601F7A7
:100A300006C000E117E24AE0A42EB12C0CC0F70179
:100A4000808122E030E0E20EF31ED2CF00E010E120
:100A500030E1A32EB12C22E0822E912C8E0C9F1C13
:100A6000F701E080F1808436A1F4F7FE0FC0F09426
:100A7000E194F108F3948DE24BDE08C0C8016AE00E
:100A800070E038D08B016230710518F0E016F10685
:100A9000A8F3C701B8012ED0862F99DEC701B8018F
:100AA00029D07C01C801B50125D08B0161157105E4
:100AB00081F774019ECF629FD001739FF001829FE6
:100AC000E00DF11D649FE00DF11D929FF00D839FDD
:100AD000F00D749FF00D659FF00D9927729FB00D7A
:100AE000E11DF91F639FB00DE11DF91FBD01CF018D
:100AF00011240895AA1BBB1B51E107C0AA1FBB1FED
:100B0000A617B70710F0A61BB70B881F991F5A9599
:100B1000A9F780959095BC01CD010895A1E21A2E08
:100B2000AA1BBB1BFD010DC0AA1FBB1FEE1FFF1F91
:100B3000A217B307E407F50720F0A21BB30BE40BE1
:100B4000F50B661F771F881F991F1A9469F7609528
:100B50007095809590959B01AC01BD01CF010895E2
:100B600097FB092E05260ED057FD04D0D7DF0AD0FB
:100B7000001C38F450954095309521953F4F4F4FCC
:100B80005F4F0895F6F790958095709561957F4F2A
:0A0B90008F4F9F4F0895F894FFCF98
:00000001FF
